:1000000012C02DC02CC02BC02AC029C028C027C0B8
:1000100026C025C024C023C022C021C020C01FC0CC
:100020001EC01DC01CC011241FBECFE5D2E0DEBF24
:10003000CDBF10E0A0E6B0E0E0EBF2E003C0C89571
:1000400031960D92A838B107D1F710E0A8E8B0E0DA
:1000500001C01D92A838B107E1F7F0D028C1D0CF78
:10006000DA9A00C0DA980895CF93DF93982F662329
:1000700011F0D89A01C0D898D998D49AD59AD69A1E
:10008000D79ADF98DE98DD98DC9897FDDF9AC92F24
:10009000DD27C6FDDE9AC5FDDD9AC4FDDC9AE0DFF2
:1000A000DF98DE98DD98DC98C3FDDF9AC2FDDE9A0A
:1000B000C1FDDD9AC0FDDC9AD3DFDC9ADD9ADE9AC1
:1000C000DF9ADF91CF910895882311F0D89A01C06B
:1000D000D898D99AD498D598D698D798DA9A00C053
:1000E00080E0CC9980E1CD998062CE998064CF99EF
:1000F0008068DA9800C0DA9A00C0CC998160CD9906
:100100008260CE998460CF998860DA9899270895A3
:1001100080E0DADF8823E4F388E290E00197F1F7EA
:1001200080E0D2DF992708951F93182FF1DF60E058
:10013000812F9ADF1F910895982F662319F4892F34
:10014000805802C0892F8054EFCFE2DF99270895AD
:1001500081E0EACF82E0E8CF0895CF93C82FD8DFBF
:10016000CA3041F4803410F480E401C080E080584B
:10017000DBDF0FC061E08C2F77DFCADF803119F43D
:1001800060E080EC04C0803519F460E080E86CDF4A
:10019000BFDFCF910895CF93DF93D92FC82F8991D7
:1001A000882321F0DADF89918823E1F7DF91CF916D
:1001B0000895CF93DF93D92FC82FF92FE82F2196D9
:1001C000C895802D882341F0C8DFFD2FEC2F2196A4
:1001D000C895802D8823C1F7DF91CF9108951F9393
:1001E000182FD09AD19AD29AD49AD59AD69AD79AC9
:1001F00080E09AEF0197F1F7DD9ADC9A31DF80E039
:100200009EE40197F1F72CDF80E091E00197F1F790
:1002100027DF80E091E00197F1F7DC9821DF80E0B3
:1002200091E00197F1F788E27FDF88E07DDF90DFE2
:1002300086E07ADF812F78DF1F910895CFE5D2E045
:10024000DEBFCDBFD39A8CE0CADF82DF80E690E0CC
:10025000A2DF80EC69DF8BE690E09DDF20E533ECE8
:1002600080E991E00197F1F721503040C9F770DF44
:10027000DB9A6EDF84E790E08EDF28E833E180E9E7
:1002800091E00197F1F721503040C9F78BB31BBAC9
:1002900080EC4ADF81E890E07EDF28E833E180E906
:1002A00091E00197F1F721503040C9F7E1CFFFCF3E
:1002B000415454696E7920383631004C43442054FF
:1002C0004553540054484953204953204F4E4C59EC
:0802D000004120544553540085
:00000001FF
