:1000000033C000004CC000004AC0000048C00000DF
:1000100046C0000044C0000042C0000040C00000D4
:100020003EC000003CC000003AC0000038C00000E4
:1000300036C0000034C0000032C0000030C00000F4
:100040002EC000002CC000002AC0000028C0000004
:1000500026C0000024C0000022C0000020C0000014
:100060001EC000001CC0000011241FBECFEFD4E052
:10007000DEBFCDBF11E0A0E0B1E0E6EEF1E002C0EE
:1000800005900D92A030B107D9F711E0A0E0B1E0E2
:1000900001C01D92A030B107E1F702D0A3C0B0CFDC
:1000A000CFEFD4E0DEBFCDBF15D081E019D08823DB
:1000B00011F066D00EC080E46BD084E469D028E8EB
:1000C00033E180E991E00197F1F721503040C9F721
:1000D000F2CFFFCF1092B90088E48093B800089562
:1000E000982F84EA8093BC008091BC008823E4F7B9
:1000F0008091B900887F883011F0803181F490932D
:10010000BB0084E88093BC008091BC008823E4F7A6
:100110008091B900887F883129F0803419F081E01E
:1001200090E0089580E090E00895982F44EA34E844
:1001300024E94093BC008091BC008823E4F78091BF
:10014000B900887F883011F0803199F79093BB0017
:100150003093BC008091BC008823E4F78091B90003
:10016000887F803211F0883539F42093BC0080916B
:10017000BC0084FDFCCFDDCF0895B2DF9927089540
:1001800084E98093BC008091BC0084FDFCCF08957D
:100190008093BB0084E88093BC008091BC008823DE
:1001A000E4F78091B900887F883219F081E090E00F
:1001B000089580E090E0089584EC8093BC008091E5
:1001C000BC008823E4F78091BB009927089584E858
:1001D0008093BC008091BC008823E4F78091BB0031
:0601E00099270895FFCFEE
:00000001FF
